{
  "contractName": "SolnSquareVerifier",
  "abi": [
    {
      "constant": true,
      "inputs": [
        {
          "name": "interfaceId",
          "type": "bytes4"
        }
      ],
      "name": "supportsInterface",
      "outputs": [
        {
          "name": "",
          "type": "bool"
        }
      ],
      "payable": false,
      "stateMutability": "view",
      "type": "function",
      "signature": "0x01ffc9a7"
    },
    {
      "constant": true,
      "inputs": [],
      "name": "name",
      "outputs": [
        {
          "name": "",
          "type": "string"
        }
      ],
      "payable": false,
      "stateMutability": "view",
      "type": "function",
      "signature": "0x06fdde03"
    },
    {
      "constant": true,
      "inputs": [
        {
          "name": "tokenId",
          "type": "uint256"
        }
      ],
      "name": "getApproved",
      "outputs": [
        {
          "name": "",
          "type": "address"
        }
      ],
      "payable": false,
      "stateMutability": "view",
      "type": "function",
      "signature": "0x081812fc"
    },
    {
      "constant": false,
      "inputs": [
        {
          "name": "to",
          "type": "address"
        },
        {
          "name": "tokenId",
          "type": "uint256"
        }
      ],
      "name": "approve",
      "outputs": [],
      "payable": false,
      "stateMutability": "nonpayable",
      "type": "function",
      "signature": "0x095ea7b3"
    },
    {
      "constant": true,
      "inputs": [],
      "name": "totalSupply",
      "outputs": [
        {
          "name": "",
          "type": "uint256"
        }
      ],
      "payable": false,
      "stateMutability": "view",
      "type": "function",
      "signature": "0x18160ddd"
    },
    {
      "constant": false,
      "inputs": [
        {
          "name": "p",
          "type": "bool"
        }
      ],
      "name": "isPaused",
      "outputs": [],
      "payable": false,
      "stateMutability": "nonpayable",
      "type": "function",
      "signature": "0x20f1dbbc"
    },
    {
      "constant": false,
      "inputs": [
        {
          "name": "from",
          "type": "address"
        },
        {
          "name": "to",
          "type": "address"
        },
        {
          "name": "tokenId",
          "type": "uint256"
        }
      ],
      "name": "transferFrom",
      "outputs": [],
      "payable": false,
      "stateMutability": "nonpayable",
      "type": "function",
      "signature": "0x23b872dd"
    },
    {
      "constant": false,
      "inputs": [
        {
          "name": "_myid",
          "type": "bytes32"
        },
        {
          "name": "_result",
          "type": "string"
        }
      ],
      "name": "__callback",
      "outputs": [],
      "payable": false,
      "stateMutability": "nonpayable",
      "type": "function",
      "signature": "0x27dc297e"
    },
    {
      "constant": true,
      "inputs": [
        {
          "name": "owner",
          "type": "address"
        },
        {
          "name": "index",
          "type": "uint256"
        }
      ],
      "name": "tokenOfOwnerByIndex",
      "outputs": [
        {
          "name": "",
          "type": "uint256"
        }
      ],
      "payable": false,
      "stateMutability": "view",
      "type": "function",
      "signature": "0x2f745c59"
    },
    {
      "constant": false,
      "inputs": [
        {
          "name": "_myid",
          "type": "bytes32"
        },
        {
          "name": "_result",
          "type": "string"
        },
        {
          "name": "_proof",
          "type": "bytes"
        }
      ],
      "name": "__callback",
      "outputs": [],
      "payable": false,
      "stateMutability": "nonpayable",
      "type": "function",
      "signature": "0x38bbfa50"
    },
    {
      "constant": false,
      "inputs": [
        {
          "name": "from",
          "type": "address"
        },
        {
          "name": "to",
          "type": "address"
        },
        {
          "name": "tokenId",
          "type": "uint256"
        }
      ],
      "name": "safeTransferFrom",
      "outputs": [],
      "payable": false,
      "stateMutability": "nonpayable",
      "type": "function",
      "signature": "0x42842e0e"
    },
    {
      "constant": true,
      "inputs": [
        {
          "name": "index",
          "type": "uint256"
        }
      ],
      "name": "tokenByIndex",
      "outputs": [
        {
          "name": "",
          "type": "uint256"
        }
      ],
      "payable": false,
      "stateMutability": "view",
      "type": "function",
      "signature": "0x4f6ccce7"
    },
    {
      "constant": true,
      "inputs": [
        {
          "name": "tokenId",
          "type": "uint256"
        }
      ],
      "name": "ownerOf",
      "outputs": [
        {
          "name": "",
          "type": "address"
        }
      ],
      "payable": false,
      "stateMutability": "view",
      "type": "function",
      "signature": "0x6352211e"
    },
    {
      "constant": true,
      "inputs": [
        {
          "name": "owner",
          "type": "address"
        }
      ],
      "name": "balanceOf",
      "outputs": [
        {
          "name": "",
          "type": "uint256"
        }
      ],
      "payable": false,
      "stateMutability": "view",
      "type": "function",
      "signature": "0x70a08231"
    },
    {
      "constant": true,
      "inputs": [],
      "name": "isOwner",
      "outputs": [
        {
          "name": "",
          "type": "bool"
        }
      ],
      "payable": false,
      "stateMutability": "view",
      "type": "function",
      "signature": "0x8f32d59b"
    },
    {
      "constant": true,
      "inputs": [],
      "name": "symbol",
      "outputs": [
        {
          "name": "",
          "type": "string"
        }
      ],
      "payable": false,
      "stateMutability": "view",
      "type": "function",
      "signature": "0x95d89b41"
    },
    {
      "constant": false,
      "inputs": [
        {
          "name": "to",
          "type": "address"
        },
        {
          "name": "approved",
          "type": "bool"
        }
      ],
      "name": "setApprovalForAll",
      "outputs": [],
      "payable": false,
      "stateMutability": "nonpayable",
      "type": "function",
      "signature": "0xa22cb465"
    },
    {
      "constant": false,
      "inputs": [
        {
          "name": "from",
          "type": "address"
        },
        {
          "name": "to",
          "type": "address"
        },
        {
          "name": "tokenId",
          "type": "uint256"
        },
        {
          "name": "_data",
          "type": "bytes"
        }
      ],
      "name": "safeTransferFrom",
      "outputs": [],
      "payable": false,
      "stateMutability": "nonpayable",
      "type": "function",
      "signature": "0xb88d4fde"
    },
    {
      "constant": true,
      "inputs": [
        {
          "name": "tokenId",
          "type": "uint256"
        }
      ],
      "name": "tokenURI",
      "outputs": [
        {
          "name": "",
          "type": "string"
        }
      ],
      "payable": false,
      "stateMutability": "view",
      "type": "function",
      "signature": "0xc87b56dd"
    },
    {
      "constant": false,
      "inputs": [
        {
          "name": "to",
          "type": "address"
        },
        {
          "name": "tokenId",
          "type": "uint32"
        }
      ],
      "name": "mint",
      "outputs": [
        {
          "name": "",
          "type": "bool"
        }
      ],
      "payable": false,
      "stateMutability": "nonpayable",
      "type": "function",
      "signature": "0xd35e29d7"
    },
    {
      "constant": true,
      "inputs": [],
      "name": "baseTokenURI",
      "outputs": [
        {
          "name": "",
          "type": "string"
        }
      ],
      "payable": false,
      "stateMutability": "view",
      "type": "function",
      "signature": "0xd547cfb7"
    },
    {
      "constant": true,
      "inputs": [
        {
          "name": "owner",
          "type": "address"
        },
        {
          "name": "operator",
          "type": "address"
        }
      ],
      "name": "isApprovedForAll",
      "outputs": [
        {
          "name": "",
          "type": "bool"
        }
      ],
      "payable": false,
      "stateMutability": "view",
      "type": "function",
      "signature": "0xe985e9c5"
    },
    {
      "constant": false,
      "inputs": [
        {
          "name": "newOwner",
          "type": "address"
        }
      ],
      "name": "transferOwnership",
      "outputs": [],
      "payable": false,
      "stateMutability": "nonpayable",
      "type": "function",
      "signature": "0xf2fde38b"
    },
    {
      "inputs": [
        {
          "name": "verifierAddress",
          "type": "address"
        }
      ],
      "payable": false,
      "stateMutability": "nonpayable",
      "type": "constructor",
      "signature": "constructor"
    },
    {
      "anonymous": false,
      "inputs": [
        {
          "indexed": false,
          "name": "solution",
          "type": "address"
        }
      ],
      "name": "solutionWasAdded",
      "type": "event",
      "signature": "0x8f30b3183c661e59e711a4a8021d8ab675a66c73543c932fec8e610640205d5d"
    },
    {
      "anonymous": false,
      "inputs": [
        {
          "indexed": true,
          "name": "from",
          "type": "address"
        },
        {
          "indexed": true,
          "name": "to",
          "type": "address"
        },
        {
          "indexed": true,
          "name": "tokenId",
          "type": "uint256"
        }
      ],
      "name": "Transfer",
      "type": "event",
      "signature": "0xddf252ad1be2c89b69c2b068fc378daa952ba7f163c4a11628f55a4df523b3ef"
    },
    {
      "anonymous": false,
      "inputs": [
        {
          "indexed": true,
          "name": "owner",
          "type": "address"
        },
        {
          "indexed": true,
          "name": "approved",
          "type": "address"
        },
        {
          "indexed": true,
          "name": "tokenId",
          "type": "uint256"
        }
      ],
      "name": "Approval",
      "type": "event",
      "signature": "0x8c5be1e5ebec7d5bd14f71427d1e84f3dd0314c0f7b2291e5b200ac8c7c3b925"
    },
    {
      "anonymous": false,
      "inputs": [
        {
          "indexed": true,
          "name": "owner",
          "type": "address"
        },
        {
          "indexed": true,
          "name": "operator",
          "type": "address"
        },
        {
          "indexed": false,
          "name": "approved",
          "type": "bool"
        }
      ],
      "name": "ApprovalForAll",
      "type": "event",
      "signature": "0x17307eab39ab6107e8899845ad3d59bd9653f200f220920489ca2b5937696c31"
    },
    {
      "anonymous": false,
      "inputs": [
        {
          "indexed": false,
          "name": "account",
          "type": "address"
        }
      ],
      "name": "Paused",
      "type": "event",
      "signature": "0x62e78cea01bee320cd4e420270b5ea74000d11b0c9f74754ebdbfc544b05a258"
    },
    {
      "anonymous": false,
      "inputs": [
        {
          "indexed": false,
          "name": "account",
          "type": "address"
        }
      ],
      "name": "Unpaused",
      "type": "event",
      "signature": "0x5db9ee0a495bf2e6ff9c91a7834c1ba4fdd244a5e8aa4e537bd38aeae4b073aa"
    },
    {
      "anonymous": false,
      "inputs": [
        {
          "indexed": true,
          "name": "oldOwner",
          "type": "address"
        },
        {
          "indexed": true,
          "name": "newOwner",
          "type": "address"
        }
      ],
      "name": "TransferOwnership",
      "type": "event",
      "signature": "0x5c486528ec3e3f0ea91181cff8116f02bfa350e03b8b6f12e00765adbb5af85c"
    },
    {
      "constant": false,
      "inputs": [
        {
          "name": "sol",
          "type": "bytes32"
        },
        {
          "name": "id",
          "type": "uint32"
        },
        {
          "name": "Address",
          "type": "address"
        }
      ],
      "name": "addSolution",
      "outputs": [],
      "payable": false,
      "stateMutability": "nonpayable",
      "type": "function",
      "signature": "0xfb03badd"
    },
    {
      "constant": false,
      "inputs": [
        {
          "name": "Address",
          "type": "address"
        },
        {
          "name": "id",
          "type": "uint32"
        },
        {
          "name": "a",
          "type": "uint256[2]"
        },
        {
          "name": "a_p",
          "type": "uint256[2]"
        },
        {
          "name": "b",
          "type": "uint256[2][2]"
        },
        {
          "name": "b_p",
          "type": "uint256[2]"
        },
        {
          "name": "c",
          "type": "uint256[2]"
        },
        {
          "name": "c_p",
          "type": "uint256[2]"
        },
        {
          "name": "h",
          "type": "uint256[2]"
        },
        {
          "name": "k",
          "type": "uint256[2]"
        },
        {
          "name": "input",
          "type": "uint256[2]"
        }
      ],
      "name": "mintNewNFT",
      "outputs": [
        {
          "name": "",
          "type": "bool"
        }
      ],
      "payable": false,
      "stateMutability": "nonpayable",
      "type": "function",
      "signature": "0x6d1df1ac"
    }
  ],
  "bytecode": "0x60806040526040518060400160405280601081526020017f4661686164455243373231546f6b656e0000000000000000000000000000000081525060139080519060200190620000519291906200060b565b506040518060400160405280600581526020017f4645524354000000000000000000000000000000000000000000000000000000815250601490805190602001906200009f9291906200060b565b506040518060600160405280603f815260200162003c3b603f913960159080519060200190620000d19291906200060b565b50348015620000df57600080fd5b5060405160208062003c7a833981018060405260208110156200010157600080fd5b810190808051906020019092919050505060138054600181600116156101000203166002900480601f016020809104026020016040519081016040528092919081815260200182805460018160011615610100020316600290048015620001ac5780601f106200018057610100808354040283529160200191620001ac565b820191906000526020600020905b8154815290600101906020018083116200018e57829003601f168201915b505050505060148054600181600116156101000203166002900480601f0160208091040260200160405190810160405280929190818152602001828054600181600116156101000203166002900480156200024b5780601f106200021f576101008083540402835291602001916200024b565b820191906000526020600020905b8154815290600101906020018083116200022d57829003601f168201915b505050505060158054600181600116156101000203166002900480601f016020809104026020016040519081016040528092919081815260200182805460018160011615610100020316600290048015620002ea5780601f10620002be57610100808354040283529160200191620002ea565b820191906000526020600020905b815481529060010190602001808311620002cc57829003601f168201915b5050505050336000806101000a81548173ffffffffffffffffffffffffffffffffffffffff021916908373ffffffffffffffffffffffffffffffffffffffff1602179055506000809054906101000a900473ffffffffffffffffffffffffffffffffffffffff1673ffffffffffffffffffffffffffffffffffffffff16600073ffffffffffffffffffffffffffffffffffffffff167f5c486528ec3e3f0ea91181cff8116f02bfa350e03b8b6f12e00765adbb5af85c60405160405180910390a360008060146101000a81548160ff021916908315150217905550620004026301ffc9a77c0100000000000000000000000000000000000000000000000000000000026200054f640100000000026401000000009004565b6200043f6380ac58cd7c0100000000000000000000000000000000000000000000000000000000026200054f640100000000026401000000009004565b6200047c63780e9d637c0100000000000000000000000000000000000000000000000000000000026200054f640100000000026401000000009004565b82600f9080519060200190620004949291906200060b565b508160109080519060200190620004ad9291906200060b565b508060119080519060200190620004c69291906200060b565b5062000504635b5e139f7c0100000000000000000000000000000000000000000000000000000000026200054f640100000000026401000000009004565b50505080601760006101000a81548173ffffffffffffffffffffffffffffffffffffffff021916908373ffffffffffffffffffffffffffffffffffffffff16021790555050620006ba565b63ffffffff7c010000000000000000000000000000000000000000000000000000000002817bffffffffffffffffffffffffffffffffffffffffffffffffffffffff191614156200059f57600080fd5b6001806000837bffffffffffffffffffffffffffffffffffffffffffffffffffffffff19167bffffffffffffffffffffffffffffffffffffffffffffffffffffffff1916815260200190815260200160002060006101000a81548160ff02191690831515021790555050565b828054600181600116156101000203166002900490600052602060002090601f016020900481019282601f106200064e57805160ff19168380011785556200067f565b828001600101855582156200067f579182015b828111156200067e57825182559160200191906001019062000661565b5b5090506200068e919062000692565b5090565b620006b791905b80821115620006b357600081600090555060010162000699565b5090565b90565b61357180620006ca6000396000f3fe608060405234801561001057600080fd5b5060043610610190576000357c0100000000000000000000000000000000000000000000000000000000900480636352211e116100fb578063b88d4fde116100b4578063d547cfb71161008e578063d547cfb714610de9578063e985e9c514610e6c578063f2fde38b14610ee8578063fb03badd14610f2c57610190565b8063b88d4fde14610bd1578063c87b56dd14610cd6578063d35e29d714610d7d57610190565b80636352211e146107285780636d1df1ac1461079657806370a0823114610a845780638f32d59b14610adc57806395d89b4114610afe578063a22cb46514610b8157610190565b806323b872dd1161014d57806323b872dd1461038757806327dc297e146103f55780632f745c59146104ba57806338bbfa501461051c57806342842e0e146106785780634f6ccce7146106e657610190565b806301ffc9a71461019557806306fdde03146101fa578063081812fc1461027d578063095ea7b3146102eb57806318160ddd1461033957806320f1dbbc14610357575b600080fd5b6101e0600480360360208110156101ab57600080fd5b8101908080357bffffffffffffffffffffffffffffffffffffffffffffffffffffffff19169060200190929190505050610f8a565b604051808215151515815260200191505060405180910390f35b610202610ff2565b6040518080602001828103825283818151815260200191508051906020019080838360005b83811015610242578082015181840152602081019050610227565b50505050905090810190601f16801561026f5780820380516001836020036101000a031916815260200191505b509250505060405180910390f35b6102a96004803603602081101561029357600080fd5b8101908080359060200190929190505050611094565b604051808273ffffffffffffffffffffffffffffffffffffffff1673ffffffffffffffffffffffffffffffffffffffff16815260200191505060405180910390f35b6103376004803603604081101561030157600080fd5b81019080803573ffffffffffffffffffffffffffffffffffffffff169060200190929190803590602001909291905050506110e3565b005b610341611224565b6040518082815260200191505060405180910390f35b6103856004803603602081101561036d57600080fd5b81019080803515159060200190929190505050611231565b005b6103f36004803603606081101561039d57600080fd5b81019080803573ffffffffffffffffffffffffffffffffffffffff169060200190929190803573ffffffffffffffffffffffffffffffffffffffff169060200190929190803590602001909291905050506113cf565b005b6104b86004803603604081101561040b57600080fd5b81019080803590602001909291908035906020019064010000000081111561043257600080fd5b82018360208201111561044457600080fd5b8035906020019184600183028401116401000000008311171561046657600080fd5b91908080601f016020809104026020016040519081016040528093929190818152602001838380828437600081840152601f19601f8201169050808301925050505050505091929192905050506113f2565b005b610506600480360360408110156104d057600080fd5b81019080803573ffffffffffffffffffffffffffffffffffffffff16906020019092919080359060200190929190505050611435565b6040518082815260200191505060405180910390f35b6106766004803603606081101561053257600080fd5b81019080803590602001909291908035906020019064010000000081111561055957600080fd5b82018360208201111561056b57600080fd5b8035906020019184600183028401116401000000008311171561058d57600080fd5b91908080601f016020809104026020016040519081016040528093929190818152602001838380828437600081840152601f19601f820116905080830192505050505050509192919290803590602001906401000000008111156105f057600080fd5b82018360208201111561060257600080fd5b8035906020019184600183028401116401000000008311171561062457600080fd5b91908080601f016020809104026020016040519081016040528093929190818152602001838380828437600081840152601f19601f8201169050808301925050505050505091929192905050506114a8565b005b6106e46004803603606081101561068e57600080fd5b81019080803573ffffffffffffffffffffffffffffffffffffffff169060200190929190803573ffffffffffffffffffffffffffffffffffffffff169060200190929190803590602001909291905050506114ad565b005b610712600480360360208110156106fc57600080fd5b81019080803590602001909291905050506114cd565b6040518082815260200191505060405180910390f35b6107546004803603602081101561073e57600080fd5b8101908080359060200190929190505050611501565b604051808273ffffffffffffffffffffffffffffffffffffffff1673ffffffffffffffffffffffffffffffffffffffff16815260200191505060405180910390f35b610a6a60048036036102c08110156107ad57600080fd5b81019080803573ffffffffffffffffffffffffffffffffffffffff169060200190929190803563ffffffff16906020019092919080604001906002806020026040519081016040528092919082600260200280828437600081840152601f19601f820116905080830192505050505050919291929080604001906002806020026040519081016040528092919082600260200280828437600081840152601f19601f82011690508083019250505050505091929192908060800190600280602002604051908101604052809291906000905b828210156108d3578382604002016002806020026040519081016040528092919082600260200280828437600081840152601f19601f8201169050808301925050505050508152602001906001019061087f565b50505050919291929080604001906002806020026040519081016040528092919082600260200280828437600081840152601f19601f820116905080830192505050505050919291929080604001906002806020026040519081016040528092919082600260200280828437600081840152601f19601f820116905080830192505050505050919291929080604001906002806020026040519081016040528092919082600260200280828437600081840152601f19601f820116905080830192505050505050919291929080604001906002806020026040519081016040528092919082600260200280828437600081840152601f19601f820116905080830192505050505050919291929080604001906002806020026040519081016040528092919082600260200280828437600081840152601f19601f820116905080830192505050505050919291929080604001906002806020026040519081016040528092919082600260200280828437600081840152601f19601f820116905080830192505050505050919291929050505061157d565b604051808215151515815260200191505060405180910390f35b610ac660048036036020811015610a9a57600080fd5b81019080803573ffffffffffffffffffffffffffffffffffffffff169060200190929190505050611b14565b6040518082815260200191505060405180910390f35b610ae4611b9d565b604051808215151515815260200191505060405180910390f35b610b06611bf4565b6040518080602001828103825283818151815260200191508051906020019080838360005b83811015610b46578082015181840152602081019050610b2b565b50505050905090810190601f168015610b735780820380516001836020036101000a031916815260200191505b509250505060405180910390f35b610bcf60048036036040811015610b9757600080fd5b81019080803573ffffffffffffffffffffffffffffffffffffffff169060200190929190803515159060200190929190505050611c96565b005b610cd460048036036080811015610be757600080fd5b81019080803573ffffffffffffffffffffffffffffffffffffffff169060200190929190803573ffffffffffffffffffffffffffffffffffffffff1690602001909291908035906020019092919080359060200190640100000000811115610c4e57600080fd5b820183602082011115610c6057600080fd5b80359060200191846001830284011164010000000083111715610c8257600080fd5b91908080601f016020809104026020016040519081016040528093929190818152602001838380828437600081840152601f19601f820116905080830192505050505050509192919290505050611dd0565b005b610d0260048036036020811015610cec57600080fd5b8101908080359060200190929190505050611df6565b6040518080602001828103825283818151815260200191508051906020019080838360005b83811015610d42578082015181840152602081019050610d27565b50505050905090810190601f168015610d6f5780820380516001836020036101000a031916815260200191505b509250505060405180910390f35b610dcf60048036036040811015610d9357600080fd5b81019080803573ffffffffffffffffffffffffffffffffffffffff169060200190929190803563ffffffff169060200190929190505050611ebd565b604051808215151515815260200191505060405180910390f35b610df1611fb0565b6040518080602001828103825283818151815260200191508051906020019080838360005b83811015610e31578082015181840152602081019050610e16565b50505050905090810190601f168015610e5e5780820380516001836020036101000a031916815260200191505b509250505060405180910390f35b610ece60048036036040811015610e8257600080fd5b81019080803573ffffffffffffffffffffffffffffffffffffffff169060200190929190803573ffffffffffffffffffffffffffffffffffffffff169060200190929190505050612052565b604051808215151515815260200191505060405180910390f35b610f2a60048036036020811015610efe57600080fd5b81019080803573ffffffffffffffffffffffffffffffffffffffff1690602001909291905050506120e6565b005b610f8860048036036060811015610f4257600080fd5b8101908080359060200190929190803563ffffffff169060200190929190803573ffffffffffffffffffffffffffffffffffffffff1690602001909291905050506122a0565b005b600060016000837bffffffffffffffffffffffffffffffffffffffffffffffffffffffff19167bffffffffffffffffffffffffffffffffffffffffffffffffffffffff1916815260200190815260200160002060009054906101000a900460ff169050919050565b6060600f8054600181600116156101000203166002900480601f01602080910402602001604051908101604052809291908181526020018280546001816001161561010002031660029004801561108a5780601f1061105f5761010080835404028352916020019161108a565b820191906000526020600020905b81548152906001019060200180831161106d57829003601f168201915b5050505050905090565b600061109f826123a0565b6110a857600080fd5b6003600083815260200190815260200160002060009054906101000a900473ffffffffffffffffffffffffffffffffffffffff169050919050565b60006110ee82611501565b90508073ffffffffffffffffffffffffffffffffffffffff168373ffffffffffffffffffffffffffffffffffffffff16141561112957600080fd5b8073ffffffffffffffffffffffffffffffffffffffff163373ffffffffffffffffffffffffffffffffffffffff16148061116957506111688133612052565b5b61117257600080fd5b826003600084815260200190815260200160002060006101000a81548173ffffffffffffffffffffffffffffffffffffffff021916908373ffffffffffffffffffffffffffffffffffffffff160217905550818373ffffffffffffffffffffffffffffffffffffffff168273ffffffffffffffffffffffffffffffffffffffff167f8c5be1e5ebec7d5bd14f71427d1e84f3dd0314c0f7b2291e5b200ac8c7c3b92560405160405180910390a4505050565b6000600880549050905090565b3373ffffffffffffffffffffffffffffffffffffffff166000809054906101000a900473ffffffffffffffffffffffffffffffffffffffff1673ffffffffffffffffffffffffffffffffffffffff16146112f3576040517f08c379a000000000000000000000000000000000000000000000000000000000815260040180806020018281038252600b8152602001807f2069742773206f776e657200000000000000000000000000000000000000000081525060200191505060405180910390fd5b600115158115151415611368577f62e78cea01bee320cd4e420270b5ea74000d11b0c9f74754ebdbfc544b05a25833604051808273ffffffffffffffffffffffffffffffffffffffff1673ffffffffffffffffffffffffffffffffffffffff16815260200191505060405180910390a16113cc565b7f5db9ee0a495bf2e6ff9c91a7834c1ba4fdd244a5e8aa4e537bd38aeae4b073aa33604051808273ffffffffffffffffffffffffffffffffffffffff1673ffffffffffffffffffffffffffffffffffffffff16815260200191505060405180910390a15b50565b6113d93382612412565b6113e257600080fd5b6113ed8383836124a7565b505050565b611431828260006040519080825280601f01601f19166020018201604052801561142b5781602001600182028038833980820191505090505b506114a8565b5050565b600061144083611b14565b821061144b57600080fd5b600660008473ffffffffffffffffffffffffffffffffffffffff1673ffffffffffffffffffffffffffffffffffffffff168152602001908152602001600020828154811061149557fe5b9060005260206000200154905092915050565b505050565b6114c883838360405180602001604052806000815250611dd0565b505050565b60006114d7611224565b82106114e257600080fd5b600882815481106114ef57fe5b90600052602060002001549050919050565b6000806002600084815260200190815260200160002060009054906101000a900473ffffffffffffffffffffffffffffffffffffffff169050600073ffffffffffffffffffffffffffffffffffffffff168173ffffffffffffffffffffffffffffffffffffffff16141561157457600080fd5b80915050919050565b6000601760009054906101000a900473ffffffffffffffffffffffffffffffffffffffff1673ffffffffffffffffffffffffffffffffffffffff1663fe01ff628b8b8b8b8b8b8b8b8b6040518a63ffffffff167c0100000000000000000000000000000000000000000000000000000000028152600401808a600260200280838360005b8381101561161c578082015181840152602081019050611601565b5050505090500189600260200280838360005b8381101561164a57808201518184015260208101905061162f565b505050509050018860026000925b8184101561169e5782846020020151600260200280838360005b8381101561168d578082015181840152602081019050611672565b505050509050019260010192611658565b9250505087600260200280838360005b838110156116c95780820151818401526020810190506116ae565b5050505090500186600260200280838360005b838110156116f75780820151818401526020810190506116dc565b5050505090500185600260200280838360005b8381101561172557808201518184015260208101905061170a565b5050505090500184600260200280838360005b83811015611753578082015181840152602081019050611738565b5050505090500183600260200280838360005b83811015611781578082015181840152602081019050611766565b5050505090500182600260200280838360005b838110156117af578082015181840152602081019050611794565b505050509050019950505050505050505050602060405180830381600087803b1580156117db57600080fd5b505af11580156117ef573d6000803e3d6000fd5b505050506040513d602081101561180557600080fd5b810190808051906020019092919050505061181f57600080fd5b60008a8a8a8a8a8a8a8a8a604051602001808a600260200280838360005b8381101561185857808201518184015260208101905061183d565b5050505090500189600260200280838360005b8381101561188657808201518184015260208101905061186b565b505050509050018860026000925b818410156118da5782846020020151600260200280838360005b838110156118c95780820151818401526020810190506118ae565b505050509050019260010192611894565b9250505087600260200280838360005b838110156119055780820151818401526020810190506118ea565b5050505090500186600260200280838360005b83811015611933578082015181840152602081019050611918565b5050505090500185600260200280838360005b83811015611961578082015181840152602081019050611946565b5050505090500184600260200280838360005b8381101561198f578082015181840152602081019050611974565b5050505090500183600260200280838360005b838110156119bd5780820151818401526020810190506119a2565b5050505090500182600260200280838360005b838110156119eb5780820151818401526020810190506119d0565b505050509050019950505050505050505050604051602081830303815290604052805190602001209050600073ffffffffffffffffffffffffffffffffffffffff166016600083815260200190815260200160002060010160009054906101000a900473ffffffffffffffffffffffffffffffffffffffff1673ffffffffffffffffffffffffffffffffffffffff1614611aed576040517f08c379a00000000000000000000000000000000000000000000000000000000081526004018080602001828103825260058152602001807f457869737400000000000000000000000000000000000000000000000000000081525060200191505060405180910390fd5b611af8818d8f6122a0565b611b028d8d611ebd565b9150509b9a5050505050505050505050565b60008073ffffffffffffffffffffffffffffffffffffffff168273ffffffffffffffffffffffffffffffffffffffff161415611b4f57600080fd5b611b96600460008473ffffffffffffffffffffffffffffffffffffffff1673ffffffffffffffffffffffffffffffffffffffff1681526020019081526020016000206124cb565b9050919050565b60008060009054906101000a900473ffffffffffffffffffffffffffffffffffffffff1673ffffffffffffffffffffffffffffffffffffffff163373ffffffffffffffffffffffffffffffffffffffff1614905090565b606060108054600181600116156101000203166002900480601f016020809104026020016040519081016040528092919081815260200182805460018160011615610100020316600290048015611c8c5780601f10611c6157610100808354040283529160200191611c8c565b820191906000526020600020905b815481529060010190602001808311611c6f57829003601f168201915b5050505050905090565b3373ffffffffffffffffffffffffffffffffffffffff168273ffffffffffffffffffffffffffffffffffffffff161415611ccf57600080fd5b80600560003373ffffffffffffffffffffffffffffffffffffffff1673ffffffffffffffffffffffffffffffffffffffff16815260200190815260200160002060008473ffffffffffffffffffffffffffffffffffffffff1673ffffffffffffffffffffffffffffffffffffffff16815260200190815260200160002060006101000a81548160ff0219169083151502179055508173ffffffffffffffffffffffffffffffffffffffff163373ffffffffffffffffffffffffffffffffffffffff167f17307eab39ab6107e8899845ad3d59bd9653f200f220920489ca2b5937696c3183604051808215151515815260200191505060405180910390a35050565b611ddb8484846113cf565b611de7848484846124d9565b611df057600080fd5b50505050565b6060611e01826123a0565b611e0a57600080fd5b601260008381526020019081526020016000208054600181600116156101000203166002900480601f016020809104026020016040519081016040528092919081815260200182805460018160011615610100020316600290048015611eb15780601f10611e8657610100808354040283529160200191611eb1565b820191906000526020600020905b815481529060010190602001808311611e9457829003601f168201915b50505050509050919050565b60003373ffffffffffffffffffffffffffffffffffffffff166000809054906101000a900473ffffffffffffffffffffffffffffffffffffffff1673ffffffffffffffffffffffffffffffffffffffff1614611f81576040517f08c379a000000000000000000000000000000000000000000000000000000000815260040180806020018281038252600b8152602001807f2069742773206f776e657200000000000000000000000000000000000000000081525060200191505060405180910390fd5b600060019050611f97848463ffffffff166126fa565b611fa68363ffffffff1661271b565b8091505092915050565b606060118054600181600116156101000203166002900480601f0160208091040260200160405190810160405280929190818152602001828054600181600116156101000203166002900480156120485780601f1061201d57610100808354040283529160200191612048565b820191906000526020600020905b81548152906001019060200180831161202b57829003601f168201915b5050505050905090565b6000600560008473ffffffffffffffffffffffffffffffffffffffff1673ffffffffffffffffffffffffffffffffffffffff16815260200190815260200160002060008373ffffffffffffffffffffffffffffffffffffffff1673ffffffffffffffffffffffffffffffffffffffff16815260200190815260200160002060009054906101000a900460ff16905092915050565b3373ffffffffffffffffffffffffffffffffffffffff166000809054906101000a900473ffffffffffffffffffffffffffffffffffffffff1673ffffffffffffffffffffffffffffffffffffffff16146121a8576040517f08c379a000000000000000000000000000000000000000000000000000000000815260040180806020018281038252600b8152602001807f2069742773206f776e657200000000000000000000000000000000000000000081525060200191505060405180910390fd5b600073ffffffffffffffffffffffffffffffffffffffff168173ffffffffffffffffffffffffffffffffffffffff1614156121e257600080fd5b8073ffffffffffffffffffffffffffffffffffffffff166000809054906101000a900473ffffffffffffffffffffffffffffffffffffffff1673ffffffffffffffffffffffffffffffffffffffff167f5c486528ec3e3f0ea91181cff8116f02bfa350e03b8b6f12e00765adbb5af85c60405160405180910390a3806000806101000a81548173ffffffffffffffffffffffffffffffffffffffff021916908373ffffffffffffffffffffffffffffffffffffffff16021790555050565b60405180604001604052808363ffffffff1681526020018273ffffffffffffffffffffffffffffffffffffffff16815250601660008581526020019081526020016000206000820151816000015560208201518160010160006101000a81548173ffffffffffffffffffffffffffffffffffffffff021916908373ffffffffffffffffffffffffffffffffffffffff1602179055509050507f8f30b3183c661e59e711a4a8021d8ab675a66c73543c932fec8e610640205d5d81604051808273ffffffffffffffffffffffffffffffffffffffff1673ffffffffffffffffffffffffffffffffffffffff16815260200191505060405180910390a1505050565b6000806002600084815260200190815260200160002060009054906101000a900473ffffffffffffffffffffffffffffffffffffffff169050600073ffffffffffffffffffffffffffffffffffffffff168173ffffffffffffffffffffffffffffffffffffffff161415915050919050565b60008061241e83611501565b90508073ffffffffffffffffffffffffffffffffffffffff168473ffffffffffffffffffffffffffffffffffffffff16148061248d57508373ffffffffffffffffffffffffffffffffffffffff1661247584611094565b73ffffffffffffffffffffffffffffffffffffffff16145b8061249e575061249d8185612052565b5b91505092915050565b6124b2838383612803565b6124bc83826129c6565b6124c68282612b64565b505050565b600081600001549050919050565b60006124fa8473ffffffffffffffffffffffffffffffffffffffff16612c2b565b61250757600190506126f2565b60008473ffffffffffffffffffffffffffffffffffffffff1663150b7a02338887876040518563ffffffff167c0100000000000000000000000000000000000000000000000000000000028152600401808573ffffffffffffffffffffffffffffffffffffffff1673ffffffffffffffffffffffffffffffffffffffff1681526020018473ffffffffffffffffffffffffffffffffffffffff1673ffffffffffffffffffffffffffffffffffffffff16815260200183815260200180602001828103825283818151815260200191508051906020019080838360005b838110156125fe5780820151818401526020810190506125e3565b50505050905090810190601f16801561262b5780820380516001836020036101000a031916815260200191505b5095505050505050602060405180830381600087803b15801561264d57600080fd5b505af1158015612661573d6000803e3d6000fd5b505050506040513d602081101561267757600080fd5b8101908080519060200190929190505050905063150b7a027c0100000000000000000000000000000000000000000000000000000000027bffffffffffffffffffffffffffffffffffffffffffffffffffffffff1916817bffffffffffffffffffffffffffffffffffffffffffffffffffffffff1916149150505b949350505050565b6127048282612c3e565b61270e8282612b64565b61271781612d84565b5050565b612724816123a0565b61272d57600080fd5b6127d960118054600181600116156101000203166002900480601f0160208091040260200160405190810160405280929190818152602001828054600181600116156101000203166002900480156127c65780601f1061279b576101008083540402835291602001916127c6565b820191906000526020600020905b8154815290600101906020018083116127a957829003601f168201915b50505050506127d483612dd0565b612f1c565b6012600083815260200190815260200160002090805190602001906127ff929190613474565b5050565b8273ffffffffffffffffffffffffffffffffffffffff1661282382611501565b73ffffffffffffffffffffffffffffffffffffffff161461284357600080fd5b600073ffffffffffffffffffffffffffffffffffffffff168273ffffffffffffffffffffffffffffffffffffffff16141561287d57600080fd5b61288681612f60565b6128cd600460008573ffffffffffffffffffffffffffffffffffffffff1673ffffffffffffffffffffffffffffffffffffffff16815260200190815260200160002061301e565b612914600460008473ffffffffffffffffffffffffffffffffffffffff1673ffffffffffffffffffffffffffffffffffffffff168152602001908152602001600020613041565b816002600083815260200190815260200160002060006101000a81548173ffffffffffffffffffffffffffffffffffffffff021916908373ffffffffffffffffffffffffffffffffffffffff160217905550808273ffffffffffffffffffffffffffffffffffffffff168473ffffffffffffffffffffffffffffffffffffffff167fddf252ad1be2c89b69c2b068fc378daa952ba7f163c4a11628f55a4df523b3ef60405160405180910390a4505050565b6000612a1e6001600660008673ffffffffffffffffffffffffffffffffffffffff1673ffffffffffffffffffffffffffffffffffffffff1681526020019081526020016000208054905061305790919063ffffffff16565b9050600060076000848152602001908152602001600020549050818114612b0b576000600660008673ffffffffffffffffffffffffffffffffffffffff1673ffffffffffffffffffffffffffffffffffffffff1681526020019081526020016000208381548110612a8b57fe5b9060005260206000200154905080600660008773ffffffffffffffffffffffffffffffffffffffff1673ffffffffffffffffffffffffffffffffffffffff1681526020019081526020016000208381548110612ae357fe5b9060005260206000200181905550816007600083815260200190815260200160002081905550505b600660008573ffffffffffffffffffffffffffffffffffffffff1673ffffffffffffffffffffffffffffffffffffffff168152602001908152602001600020805480919060019003612b5d91906134f4565b5050505050565b600660008373ffffffffffffffffffffffffffffffffffffffff1673ffffffffffffffffffffffffffffffffffffffff168152602001908152602001600020805490506007600083815260200190815260200160002081905550600660008373ffffffffffffffffffffffffffffffffffffffff1673ffffffffffffffffffffffffffffffffffffffff1681526020019081526020016000208190806001815401808255809150509060018203906000526020600020016000909192909190915055505050565b600080823b905060008111915050919050565b600073ffffffffffffffffffffffffffffffffffffffff168273ffffffffffffffffffffffffffffffffffffffff161415612c7857600080fd5b612c81816123a0565b15612c8b57600080fd5b816002600083815260200190815260200160002060006101000a81548173ffffffffffffffffffffffffffffffffffffffff021916908373ffffffffffffffffffffffffffffffffffffffff160217905550612d24600460008473ffffffffffffffffffffffffffffffffffffffff1673ffffffffffffffffffffffffffffffffffffffff168152602001908152602001600020613041565b808273ffffffffffffffffffffffffffffffffffffffff16600073ffffffffffffffffffffffffffffffffffffffff167fddf252ad1be2c89b69c2b068fc378daa952ba7f163c4a11628f55a4df523b3ef60405160405180910390a45050565b6008805490506009600083815260200190815260200160002081905550600881908060018154018082558091505090600182039060005260206000200160009091929091909150555050565b60606000821415612e18576040518060400160405280600181526020017f30000000000000000000000000000000000000000000000000000000000000008152509050612f17565b600082905060005b60008214612e42578080600101915050600a8281612e3a57fe5b049150612e20565b6060816040519080825280601f01601f191660200182016040528015612e775781602001600182028038833980820191505090505b50905060006001830390505b60008614612f0f57600a8681612e9557fe5b066030017f01000000000000000000000000000000000000000000000000000000000000000282828060019003935081518110612ece57fe5b60200101907effffffffffffffffffffffffffffffffffffffffffffffffffffffffffffff1916908160001a905350600a8681612f0757fe5b049550612e83565b819450505050505b919050565b6060612f588383604051806020016040528060008152506040518060200160405280600081525060405180602001604052806000815250613077565b905092915050565b600073ffffffffffffffffffffffffffffffffffffffff166003600083815260200190815260200160002060009054906101000a900473ffffffffffffffffffffffffffffffffffffffff1673ffffffffffffffffffffffffffffffffffffffff161461301b5760006003600083815260200190815260200160002060006101000a81548173ffffffffffffffffffffffffffffffffffffffff021916908373ffffffffffffffffffffffffffffffffffffffff1602179055505b50565b6130366001826000015461305790919063ffffffff16565b816000018190555050565b6001816000016000828254019250508190555050565b60008282111561306657600080fd5b600082840390508091505092915050565b6060808690506060869050606086905060608690506060869050606081518351855187518951010101016040519080825280601f01601f1916602001820160405280156130d35781602001600182028038833980820191505090505b509050606081905060008090506000809050600090505b8851811015613197578881815181106130ff57fe5b60200101517f010000000000000000000000000000000000000000000000000000000000000090047f01000000000000000000000000000000000000000000000000000000000000000283838060010194508151811061315b57fe5b60200101907effffffffffffffffffffffffffffffffffffffffffffffffffffffffffffff1916908160001a90535080806001019150506130ea565b600090505b8751811015613249578781815181106131b157fe5b60200101517f010000000000000000000000000000000000000000000000000000000000000090047f01000000000000000000000000000000000000000000000000000000000000000283838060010194508151811061320d57fe5b60200101907effffffffffffffffffffffffffffffffffffffffffffffffffffffffffffff1916908160001a905350808060010191505061319c565b600090505b86518110156132fb5786818151811061326357fe5b60200101517f010000000000000000000000000000000000000000000000000000000000000090047f0100000000000000000000000000000000000000000000000000000000000000028383806001019450815181106132bf57fe5b60200101907effffffffffffffffffffffffffffffffffffffffffffffffffffffffffffff1916908160001a905350808060010191505061324e565b600090505b85518110156133ad5785818151811061331557fe5b60200101517f010000000000000000000000000000000000000000000000000000000000000090047f01000000000000000000000000000000000000000000000000000000000000000283838060010194508151811061337157fe5b60200101907effffffffffffffffffffffffffffffffffffffffffffffffffffffffffffff1916908160001a9053508080600101915050613300565b600090505b845181101561345f578481815181106133c757fe5b60200101517f010000000000000000000000000000000000000000000000000000000000000090047f01000000000000000000000000000000000000000000000000000000000000000283838060010194508151811061342357fe5b60200101907effffffffffffffffffffffffffffffffffffffffffffffffffffffffffffff1916908160001a90535080806001019150506133b2565b82995050505050505050505095945050505050565b828054600181600116156101000203166002900490600052602060002090601f016020900481019282601f106134b557805160ff19168380011785556134e3565b828001600101855582156134e3579182015b828111156134e25782518255916020019190600101906134c7565b5b5090506134f09190613520565b5090565b81548183558181111561351b5781836000526020600020918201910161351a9190613520565b5b505050565b61354291905b8082111561353e576000816000905550600101613526565b5090565b9056fea165627a7a723058204c190c7be04496d73bb63b7b3470928cd13d0568c732649778b07971aaef1f30002968747470733a2f2f73332d75732d776573742d322e616d617a6f6e6177732e636f6d2f756461636974792d626c6f636b636861696e2f63617073746f6e652f",
  "source": "pragma solidity >=0.4.21 <0.6.0;\n\n// TODO define a contract call to the zokrates generated solidity contract <Verifier> or <renamedVerifier>\nimport \"./ERC721Mintable.sol\";\nimport \"./verifier.sol\";\n// TODO define another contract named SolnSquareVerifier that inherits from your ERC721Mintable class\n\n\n\ncontract SolnSquareVerifier is FahadERC721Token{\n// TODO define a solutions struct that can hold an index & an address\nstruct solution {\n    uint256 id;\n    address Address;\n}\n\n// TODO define an array of the above struct\n// TODO define a mapping to store unique solutions submitted\nmapping(bytes32 => solution)private solutions;\n\n// TODO Create an event to emit when a solution is added\nevent solutionWasAdded(address solution);\n\n\n\n// TODO Create a function to add the solutions to the array and emit the event\nfunction addSolution(bytes32 sol , uint32 id, address Address) public{\n    solutions[sol] = solution(\n        {\n            id : id ,\n            Address : Address\n        }\n    );\n    emit solutionWasAdded(Address);\n}\n       \n\nVerifier verifier ; \nconstructor\n( \n    address verifierAddress \n)\npublic\n{\n    verifier = Verifier(verifierAddress);\n}\n\nfunction mintNewNFT(\n                        address Address , \n                        uint32 id,\n                        uint[2] memory a ,\n                        uint[2] memory a_p ,\n                        uint[2][2] memory b ,\n                        uint[2] memory b_p ,\n                        uint[2] memory c ,\n                        uint[2] memory c_p ,\n                        uint[2] memory h ,\n                        uint[2] memory k ,\n                        uint[2] memory input \n                    ) public returns (bool)\n                    {\n                        require(verifier.verifyTx(a,a_p, b , b_p,c, c_p,h,k, input));\n                        bytes32 sol = keccak256(abi.encodePacked(a,a_p, b , b_p,c, c_p,h,k, input));\n                        require(solutions[sol].Address == address (0) , \"Exist\" );\n                        addSolution(sol , id , Address);\n                        return mint(Address,id);\n                    }\n}\n\n\n\n\n\n\n\n\n\n\n\n  \n\n\n\n\n\n\n\n\n\n\n\n\n\n\n\n\n\n\n\n\n\n\n\n\n\n\n",
  "sourcePath": "/Users/fahadalosaimi/Documents/BLOCKCHAIN-ND/Blockchain-Capstone-master-2/contracts/SolnSquareVerifier.sol",
  "compiler": {
    "name": "solc",
    "version": "0.5.8+commit.23d335f2.Emscripten.clang"
  },
  "schemaVersion": "3.0.8",
  "updatedAt": "2019-05-03T03:49:06.464Z",
  "devdoc": {
    "methods": {
      "isApprovedForAll(address,address)": {
        "details": "Tells whether an operator is approved by a given owner",
        "params": {
          "operator": "operator address which you want to query the approval of",
          "owner": "owner address which you want to query the approval of"
        },
        "return": "bool whether the given operator is approved by the given owner"
      },
      "setApprovalForAll(address,bool)": {
        "details": "Sets or unsets the approval of a given operator An operator is allowed to transfer all tokens of the sender on their behalf",
        "params": {
          "approved": "representing the status of the approval to be set",
          "to": "operator address to set the approval"
        }
      },
      "supportsInterface(bytes4)": {
        "details": "implement supportsInterface(bytes4) using a lookup table"
      },
      "tokenByIndex(uint256)": {
        "details": "Gets the token ID at a given index of all the tokens in this contract Reverts if the index is greater or equal to the total number of tokens",
        "params": {
          "index": "uint256 representing the index to be accessed of the tokens list"
        },
        "return": "uint256 token ID at the given index of the tokens list"
      },
      "tokenOfOwnerByIndex(address,uint256)": {
        "details": "Gets the token ID at a given index of the tokens list of the requested owner",
        "params": {
          "index": "uint256 representing the index to be accessed of the requested tokens list",
          "owner": "address owning the tokens list to be accessed"
        },
        "return": "uint256 token ID at the given index of the tokens list owned by the requested address"
      },
      "totalSupply()": {
        "details": "Gets the total amount of tokens stored by the contract",
        "return": "uint256 representing the total amount of tokens"
      }
    }
  },
  "userdoc": {
    "methods": {}
  }
}